{
  "address": "0x65305549F8b0Bc1eb311bAa72E2A6500224FcE37",
  "abi": [
    {
      "inputs": [
        {
          "internalType": "contract IERC20",
          "name": "_NBNG",
          "type": "address"
        },
        {
          "internalType": "address",
          "name": "_devaddr",
          "type": "address"
        },
        {
          "internalType": "uint256",
          "name": "_startBlock",
          "type": "uint256"
        }
      ],
      "stateMutability": "nonpayable",
      "type": "constructor"
    },
    {
      "anonymous": false,
      "inputs": [
        {
          "indexed": true,
          "internalType": "address",
          "name": "user",
          "type": "address"
        },
        {
          "indexed": true,
          "internalType": "uint256",
          "name": "pid",
          "type": "uint256"
        },
        {
          "indexed": false,
          "internalType": "uint256",
          "name": "amount",
          "type": "uint256"
        }
      ],
      "name": "Deposit",
      "type": "event"
    },
    {
      "anonymous": false,
      "inputs": [
        {
          "indexed": true,
          "internalType": "address",
          "name": "user",
          "type": "address"
        },
        {
          "indexed": true,
          "internalType": "uint256",
          "name": "pid",
          "type": "uint256"
        },
        {
          "indexed": false,
          "internalType": "uint256",
          "name": "amount",
          "type": "uint256"
        }
      ],
      "name": "EmergencyWithdraw",
      "type": "event"
    },
    {
      "anonymous": false,
      "inputs": [
        {
          "indexed": true,
          "internalType": "address",
          "name": "owner",
          "type": "address"
        },
        {
          "indexed": false,
          "internalType": "uint256",
          "name": "amount",
          "type": "uint256"
        }
      ],
      "name": "OwnerEmergencyWithdraw",
      "type": "event"
    },
    {
      "anonymous": false,
      "inputs": [
        {
          "indexed": true,
          "internalType": "address",
          "name": "previousOwner",
          "type": "address"
        },
        {
          "indexed": true,
          "internalType": "address",
          "name": "newOwner",
          "type": "address"
        }
      ],
      "name": "OwnershipTransferred",
      "type": "event"
    },
    {
      "anonymous": false,
      "inputs": [
        {
          "indexed": true,
          "internalType": "address",
          "name": "user",
          "type": "address"
        },
        {
          "indexed": true,
          "internalType": "uint256",
          "name": "pid",
          "type": "uint256"
        },
        {
          "indexed": false,
          "internalType": "uint256",
          "name": "amount",
          "type": "uint256"
        }
      ],
      "name": "Withdraw",
      "type": "event"
    },
    {
      "inputs": [],
      "name": "NBNG",
      "outputs": [
        {
          "internalType": "contract IERC20",
          "name": "",
          "type": "address"
        }
      ],
      "stateMutability": "view",
      "type": "function"
    },
    {
      "inputs": [
        {
          "internalType": "uint256",
          "name": "_allocPoint",
          "type": "uint256"
        },
        {
          "internalType": "contract IERC20",
          "name": "_lpToken",
          "type": "address"
        },
        {
          "internalType": "uint256",
          "name": "_nbngPerBlock",
          "type": "uint256"
        },
        {
          "internalType": "uint256",
          "name": "_upperLimit",
          "type": "uint256"
        },
        {
          "internalType": "bool",
          "name": "_withUpdate",
          "type": "bool"
        }
      ],
      "name": "add",
      "outputs": [],
      "stateMutability": "nonpayable",
      "type": "function"
    },
    {
      "inputs": [
        {
          "internalType": "uint256",
          "name": "_pid",
          "type": "uint256"
        },
        {
          "internalType": "uint256",
          "name": "_amount",
          "type": "uint256"
        }
      ],
      "name": "deposit",
      "outputs": [],
      "stateMutability": "nonpayable",
      "type": "function"
    },
    {
      "inputs": [
        {
          "internalType": "address",
          "name": "_devaddr",
          "type": "address"
        }
      ],
      "name": "dev",
      "outputs": [],
      "stateMutability": "nonpayable",
      "type": "function"
    },
    {
      "inputs": [],
      "name": "devaddr",
      "outputs": [
        {
          "internalType": "address",
          "name": "",
          "type": "address"
        }
      ],
      "stateMutability": "view",
      "type": "function"
    },
    {
      "inputs": [
        {
          "internalType": "uint256",
          "name": "_pid",
          "type": "uint256"
        }
      ],
      "name": "emergencyWithdraw",
      "outputs": [],
      "stateMutability": "nonpayable",
      "type": "function"
    },
    {
      "inputs": [
        {
          "internalType": "uint256",
          "name": "_from",
          "type": "uint256"
        },
        {
          "internalType": "uint256",
          "name": "_to",
          "type": "uint256"
        }
      ],
      "name": "getMultiplier",
      "outputs": [
        {
          "internalType": "uint256",
          "name": "",
          "type": "uint256"
        }
      ],
      "stateMutability": "view",
      "type": "function"
    },
    {
      "inputs": [],
      "name": "massUpdatePools",
      "outputs": [],
      "stateMutability": "nonpayable",
      "type": "function"
    },
    {
      "inputs": [
        {
          "internalType": "uint256",
          "name": "_pid",
          "type": "uint256"
        }
      ],
      "name": "migrate",
      "outputs": [],
      "stateMutability": "nonpayable",
      "type": "function"
    },
    {
      "inputs": [],
      "name": "migrator",
      "outputs": [
        {
          "internalType": "contract IMigratorChef",
          "name": "",
          "type": "address"
        }
      ],
      "stateMutability": "view",
      "type": "function"
    },
    {
      "inputs": [],
      "name": "owner",
      "outputs": [
        {
          "internalType": "address",
          "name": "",
          "type": "address"
        }
      ],
      "stateMutability": "view",
      "type": "function"
    },
    {
      "inputs": [
        {
          "internalType": "uint256",
          "name": "_amount",
          "type": "uint256"
        }
      ],
      "name": "ownerEmergencyWithdraw",
      "outputs": [],
      "stateMutability": "nonpayable",
      "type": "function"
    },
    {
      "inputs": [
        {
          "internalType": "uint256",
          "name": "_pid",
          "type": "uint256"
        },
        {
          "internalType": "address",
          "name": "_user",
          "type": "address"
        }
      ],
      "name": "pendingNBNG",
      "outputs": [
        {
          "internalType": "uint256",
          "name": "",
          "type": "uint256"
        }
      ],
      "stateMutability": "view",
      "type": "function"
    },
    {
      "inputs": [
        {
          "internalType": "uint256",
          "name": "",
          "type": "uint256"
        }
      ],
      "name": "poolInfo",
      "outputs": [
        {
          "internalType": "contract IERC20",
          "name": "lpToken",
          "type": "address"
        },
        {
          "internalType": "uint256",
          "name": "allocPoint",
          "type": "uint256"
        },
        {
          "internalType": "uint256",
          "name": "lastRewardBlock",
          "type": "uint256"
        },
        {
          "internalType": "uint256",
          "name": "accNBNGPerShare",
          "type": "uint256"
        },
        {
          "internalType": "uint256",
          "name": "nbngPerBlock",
          "type": "uint256"
        },
        {
          "internalType": "uint256",
          "name": "upperLimit",
          "type": "uint256"
        },
        {
          "internalType": "uint256",
          "name": "startPoolBlock",
          "type": "uint256"
        }
      ],
      "stateMutability": "view",
      "type": "function"
    },
    {
      "inputs": [],
      "name": "poolLength",
      "outputs": [
        {
          "internalType": "uint256",
          "name": "",
          "type": "uint256"
        }
      ],
      "stateMutability": "view",
      "type": "function"
    },
    {
      "inputs": [],
      "name": "renounceOwnership",
      "outputs": [],
      "stateMutability": "nonpayable",
      "type": "function"
    },
    {
      "inputs": [
        {
          "internalType": "uint256",
          "name": "_pid",
          "type": "uint256"
        },
        {
          "internalType": "uint256",
          "name": "_allocPoint",
          "type": "uint256"
        },
        {
          "internalType": "bool",
          "name": "_withUpdate",
          "type": "bool"
        }
      ],
      "name": "set",
      "outputs": [],
      "stateMutability": "nonpayable",
      "type": "function"
    },
    {
      "inputs": [
        {
          "internalType": "contract IMigratorChef",
          "name": "_migrator",
          "type": "address"
        }
      ],
      "name": "setMigrator",
      "outputs": [],
      "stateMutability": "nonpayable",
      "type": "function"
    },
    {
      "inputs": [],
      "name": "startBlock",
      "outputs": [
        {
          "internalType": "uint256",
          "name": "",
          "type": "uint256"
        }
      ],
      "stateMutability": "view",
      "type": "function"
    },
    {
      "inputs": [],
      "name": "totalAllocPoint",
      "outputs": [
        {
          "internalType": "uint256",
          "name": "",
          "type": "uint256"
        }
      ],
      "stateMutability": "view",
      "type": "function"
    },
    {
      "inputs": [
        {
          "internalType": "address",
          "name": "newOwner",
          "type": "address"
        }
      ],
      "name": "transferOwnership",
      "outputs": [],
      "stateMutability": "nonpayable",
      "type": "function"
    },
    {
      "inputs": [
        {
          "internalType": "uint256",
          "name": "_pid",
          "type": "uint256"
        }
      ],
      "name": "updatePool",
      "outputs": [],
      "stateMutability": "nonpayable",
      "type": "function"
    },
    {
      "inputs": [
        {
          "internalType": "uint256",
          "name": "",
          "type": "uint256"
        },
        {
          "internalType": "address",
          "name": "",
          "type": "address"
        }
      ],
      "name": "userInfo",
      "outputs": [
        {
          "internalType": "uint256",
          "name": "amount",
          "type": "uint256"
        },
        {
          "internalType": "uint256",
          "name": "rewardDebt",
          "type": "uint256"
        }
      ],
      "stateMutability": "view",
      "type": "function"
    },
    {
      "inputs": [
        {
          "internalType": "uint256",
          "name": "_pid",
          "type": "uint256"
        },
        {
          "internalType": "uint256",
          "name": "_amount",
          "type": "uint256"
        }
      ],
      "name": "withdraw",
      "outputs": [],
      "stateMutability": "nonpayable",
      "type": "function"
    }
  ],
  "transactionHash": "0x0cf3cbaaf06b5f298669e127b527a318db4b37936d645231c5580cf15d97156e",
  "args": [
    "0x41c708Fd68C1f1CCF027fABe82996BDE60eDb3A3",
    "0xb30dfacb764F6f3144FAAE7af0962De0EeC59654",
    "0"
  ],
  "solcInputHash": "978e96daefefe9ae6febcfe0ed31b8c7",
  "bytecode": "0x6080604052600060065534801561001557600080fd5b50604051611e80380380611e808339818101604052606081101561003857600080fd5b508051602082015160409092015190919060006100536100d5565b600080546001600160a01b0319166001600160a01b0383169081178255604051929350917f8be0079c531659141344cd1fd0a4f28419497f9722a3daafe3b4186f6b6457e0908290a350600180546001600160a01b039485166001600160a01b03199182161790915560028054939094169216919091179091556007556100d9565b3390565b611d98806100e86000396000f3fe608060405234801561001057600080fd5b50600436106101585760003560e01c80637cd07e47116100c357806393f1a40b1161007c57806393f1a40b1461035d57806394e98354146103a2578063d49e77cd146103ce578063e2bbb158146103d6578063f2fde38b146103f9578063f6e6a0e61461041f57610158565b80637cd07e47146102c3578063854a87c6146102e75780638d88a90e146103045780638da5cb5b1461032a5780638dbb1e3a1461033257806392135bb71461035557610158565b806348cd4cb11161011557806348cd4cb11461024657806351eb05a61461024e5780635312ea8e1461026b578063630b5ba11461028857806364482f7914610290578063715018a6146102bb57610158565b8063081e3eda1461015d5780631526fe271461017757806317caf6f1146101d657806323cf3118146101de578063441a3e7014610206578063454b060814610229575b600080fd5b61016561045f565b60408051918252519081900360200190f35b6101946004803603602081101561018d57600080fd5b5035610465565b604080516001600160a01b0390981688526020880196909652868601949094526060860192909252608085015260a084015260c0830152519081900360e00190f35b6101656104bb565b610204600480360360208110156101f457600080fd5b50356001600160a01b03166104c1565b005b6102046004803603604081101561021c57600080fd5b5080359060200135610545565b6102046004803603602081101561023f57600080fd5b5035610698565b6101656108f9565b6102046004803603602081101561026457600080fd5b50356108ff565b6102046004803603602081101561028157600080fd5b5035610a6d565b610204610b08565b610204600480360360608110156102a657600080fd5b50803590602081013590604001351515610b2b565b610204610c06565b6102cb610cb2565b604080516001600160a01b039092168252519081900360200190f35b610204600480360360208110156102fd57600080fd5b5035610cc1565b6102046004803603602081101561031a57600080fd5b50356001600160a01b0316610e64565b6102cb610ed1565b6101656004803603604081101561034857600080fd5b5080359060200135610ee0565b6102cb610ef5565b6103896004803603604081101561037357600080fd5b50803590602001356001600160a01b0316610f04565b6040805192835260208301919091528051918290030190f35b610165600480360360408110156103b857600080fd5b50803590602001356001600160a01b0316610f28565b6102cb6110b2565b610204600480360360408110156103ec57600080fd5b50803590602001356110c1565b6102046004803603602081101561040f57600080fd5b50356001600160a01b03166111c6565b610204600480360360a081101561043557600080fd5b508035906001600160a01b03602082013516906040810135906060810135906080013515156112c8565b60045490565b6004818154811061047257fe5b600091825260209091206007909102018054600182015460028301546003840154600485015460058601546006909601546001600160a01b039095169650929491939092919087565b60065481565b6104c96114d4565b6001600160a01b03166104da610ed1565b6001600160a01b031614610523576040805162461bcd60e51b81526020600482018190526024820152600080516020611ce3833981519152604482015290519081900360640190fd5b600380546001600160a01b0319166001600160a01b0392909216919091179055565b60006004838154811061055457fe5b6000918252602080832086845260058252604080852033865290925292208054600790920290920192508311156105c7576040805162461bcd60e51b81526020600482015260126024820152711dda5d1a191c985dce881b9bdd0819dbdbd960721b604482015290519081900360640190fd5b6105d0846108ff565b600061060a826001015461060464e8d4a510006105fe876003015487600001546114d890919063ffffffff16565b90611531565b90611598565b905061061633826115f5565b81546106229085611598565b808355600384015461063f9164e8d4a51000916105fe91906114d8565b6001830155825461065a906001600160a01b03163386611786565b604080518581529051869133917ff279e6a1f5e320cca91135676d9cb6e44ca8a08c0b88342bcdb1144f6511b5689181900360200190a35050505050565b6003546001600160a01b03166106ec576040805162461bcd60e51b815260206004820152601460248201527336b4b3b930ba329d1037379036b4b3b930ba37b960611b604482015290519081900360640190fd5b6000600482815481106106fb57fe5b6000918252602080832060079092029091018054604080516370a0823160e01b815230600482015290519295506001600160a01b03909116939284926370a08231926024808201939291829003018186803b15801561075957600080fd5b505afa15801561076d573d6000803e3d6000fd5b505050506040513d602081101561078357600080fd5b50516003549091506107a2906001600160a01b038481169116836117d8565b6003546040805163ce5494bb60e01b81526001600160a01b0385811660048301529151600093929092169163ce5494bb9160248082019260209290919082900301818787803b1580156107f457600080fd5b505af1158015610808573d6000803e3d6000fd5b505050506040513d602081101561081e57600080fd5b5051604080516370a0823160e01b815230600482015290519192506001600160a01b038316916370a0823191602480820192602092909190829003018186803b15801561086a57600080fd5b505afa15801561087e573d6000803e3d6000fd5b505050506040513d602081101561089457600080fd5b505182146108d8576040805162461bcd60e51b815260206004820152600c60248201526b1b5a59dc985d194e8818985960a21b604482015290519081900360640190fd5b83546001600160a01b0319166001600160a01b039190911617909255505050565b60075481565b60006004828154811061090e57fe5b906000526020600020906007020190508060020154431161092f5750610a6a565b8054604080516370a0823160e01b815230600482015290516000926001600160a01b0316916370a08231916024808301926020929190829003018186803b15801561097957600080fd5b505afa15801561098d573d6000803e3d6000fd5b505050506040513d60208110156109a357600080fd5b50519050806109c057504360028201819055600690910155610a6a565b600082600401548360050154816109d357fe5b04905060008184600601540143116109eb57436109f3565b818460060154015b90506000610a05856002015483610ee0565b90506000610a346006546105fe8860010154610a2e8a60040154876114d890919063ffffffff16565b906114d8565b9050610a57610a4c866105fe8464e8d4a510006114d8565b6003880154906118eb565b6003870155505060029093019290925550505b50565b600060048281548110610a7c57fe5b60009182526020808320858452600582526040808520338087529352909320805460079093029093018054909450610ac1926001600160a01b03919091169190611786565b80546040805191825251849133917fbb757047c2b5f3974fe26b7c10f732e7bce710b0952a71082702781e62ae05959181900360200190a360008082556001909101555050565b60045460005b81811015610b2757610b1f816108ff565b600101610b0e565b5050565b610b336114d4565b6001600160a01b0316610b44610ed1565b6001600160a01b031614610b8d576040805162461bcd60e51b81526020600482018190526024820152600080516020611ce3833981519152604482015290519081900360640190fd5b8015610b9b57610b9b610b08565b610bd882610bd260048681548110610baf57fe5b90600052602060002090600702016001015460065461159890919063ffffffff16565b906118eb565b6006819055508160048481548110610bec57fe5b906000526020600020906007020160010181905550505050565b610c0e6114d4565b6001600160a01b0316610c1f610ed1565b6001600160a01b031614610c68576040805162461bcd60e51b81526020600482018190526024820152600080516020611ce3833981519152604482015290519081900360640190fd5b600080546040516001600160a01b03909116907f8be0079c531659141344cd1fd0a4f28419497f9722a3daafe3b4186f6b6457e0908390a3600080546001600160a01b0319169055565b6003546001600160a01b031681565b610cc96114d4565b6001600160a01b0316610cda610ed1565b6001600160a01b031614610d23576040805162461bcd60e51b81526020600482018190526024820152600080516020611ce3833981519152604482015290519081900360640190fd5b600154604080516370a0823160e01b815230600482015290516000926001600160a01b0316916370a08231916024808301926020929190829003018186803b158015610d6e57600080fd5b505afa158015610d82573d6000803e3d6000fd5b505050506040513d6020811015610d9857600080fd5b5051905080821115610daa5750610a6a565b6001546040805163a9059cbb60e01b81523360048201526024810185905290516001600160a01b039092169163a9059cbb916044808201926020929091908290030181600087803b158015610dfe57600080fd5b505af1158015610e12573d6000803e3d6000fd5b505050506040513d6020811015610e2857600080fd5b505060408051838152905133917f981d3c28f31fcaa66fd0fe1e5174dd15dbfc7cec12fb4473c5bfb9bc47fecc15919081900360200190a25050565b6002546001600160a01b03163314610eaf576040805162461bcd60e51b81526020600482015260096024820152686465763a207775743f60b81b604482015290519081900360640190fd5b600280546001600160a01b0319166001600160a01b0392909216919091179055565b6000546001600160a01b031690565b6000610eec8284611598565b90505b92915050565b6001546001600160a01b031681565b60056020908152600092835260408084209091529082529020805460019091015482565b60008060048481548110610f3857fe5b600091825260208083208784526005825260408085206001600160a01b0389811687529084528186206007959095029092016003810154815483516370a0823160e01b815230600482015293519298509596909590949316926370a082319260248082019391829003018186803b158015610fb257600080fd5b505afa158015610fc6573d6000803e3d6000fd5b505050506040513d6020811015610fdc57600080fd5b50516004850154600586015491925060009181610ff557fe5b04856006015401905084600201544311801561101057508115155b801561101c5750804311155b1561107e576000611031866002015443610ee0565b9050600061105a6006546105fe8960010154610a2e8b60040154876114d890919063ffffffff16565b9050611079611072856105fe8464e8d4a510006114d8565b86906118eb565b945050505b6110a6846001015461060464e8d4a510006105fe8789600001546114d890919063ffffffff16565b98975050505050505050565b6002546001600160a01b031681565b6000600483815481106110d057fe5b60009182526020808320868452600582526040808520338652909252922060079091029091019150611101846108ff565b805415611144576000611136826001015461060464e8d4a510006105fe876003015487600001546114d890919063ffffffff16565b905061114233826115f5565b505b815461115b906001600160a01b0316333086611945565b805461116790846118eb565b80825560038301546111849164e8d4a51000916105fe91906114d8565b6001820155604080518481529051859133917f90890809c654f11d6e72a28fa60149770a0d11ec6c92319d6ceb2bb0a4ea1a159181900360200190a350505050565b6111ce6114d4565b6001600160a01b03166111df610ed1565b6001600160a01b031614611228576040805162461bcd60e51b81526020600482018190526024820152600080516020611ce3833981519152604482015290519081900360640190fd5b6001600160a01b03811661126d5760405162461bcd60e51b8152600401808060200182810382526026815260200180611c766026913960400191505060405180910390fd5b600080546040516001600160a01b03808516939216917f8be0079c531659141344cd1fd0a4f28419497f9722a3daafe3b4186f6b6457e091a3600080546001600160a01b0319166001600160a01b0392909216919091179055565b6112d06114d4565b6001600160a01b03166112e1610ed1565b6001600160a01b03161461132a576040805162461bcd60e51b81526020600482018190526024820152600080516020611ce3833981519152604482015290519081900360640190fd5b801561133857611338610b08565b6000600754431161134b5760075461134d565b435b60065490915061135d90876118eb565b6006556040805160e0810182526001600160a01b039687168152602081019788529081018281526000606083018181526080840197885260a0840196875260c0840194855260048054600181018255925292517f8a35acfbc15ff81a39ae7d344fd709f28e8600b4aa8c65c6b64bfe7fe36bd19b600790920291820180546001600160a01b031916919099161790975596517f8a35acfbc15ff81a39ae7d344fd709f28e8600b4aa8c65c6b64bfe7fe36bd19c87015595517f8a35acfbc15ff81a39ae7d344fd709f28e8600b4aa8c65c6b64bfe7fe36bd19d86015594517f8a35acfbc15ff81a39ae7d344fd709f28e8600b4aa8c65c6b64bfe7fe36bd19e8501555090517f8a35acfbc15ff81a39ae7d344fd709f28e8600b4aa8c65c6b64bfe7fe36bd19f830155517f8a35acfbc15ff81a39ae7d344fd709f28e8600b4aa8c65c6b64bfe7fe36bd1a082015590517f8a35acfbc15ff81a39ae7d344fd709f28e8600b4aa8c65c6b64bfe7fe36bd1a190910155565b3390565b6000826114e757506000610eef565b828202828482816114f457fe5b0414610eec5760405162461bcd60e51b8152600401808060200182810382526021815260200180611cc26021913960400191505060405180910390fd5b6000808211611587576040805162461bcd60e51b815260206004820152601a60248201527f536166654d6174683a206469766973696f6e206279207a65726f000000000000604482015290519081900360640190fd5b81838161159057fe5b049392505050565b6000828211156115ef576040805162461bcd60e51b815260206004820152601e60248201527f536166654d6174683a207375627472616374696f6e206f766572666c6f770000604482015290519081900360640190fd5b50900390565b600154604080516370a0823160e01b815230600482015290516000926001600160a01b0316916370a08231916024808301926020929190829003018186803b15801561164057600080fd5b505afa158015611654573d6000803e3d6000fd5b505050506040513d602081101561166a57600080fd5b50519050808211156116fe576001546040805163a9059cbb60e01b81526001600160a01b038681166004830152602482018590529151919092169163a9059cbb9160448083019260209291908290030181600087803b1580156116cc57600080fd5b505af11580156116e0573d6000803e3d6000fd5b505050506040513d60208110156116f657600080fd5b506117819050565b6001546040805163a9059cbb60e01b81526001600160a01b038681166004830152602482018690529151919092169163a9059cbb9160448083019260209291908290030181600087803b15801561175457600080fd5b505af1158015611768573d6000803e3d6000fd5b505050506040513d602081101561177e57600080fd5b50505b505050565b604080516001600160a01b038416602482015260448082018490528251808303909101815260649091019091526020810180516001600160e01b031663a9059cbb60e01b1790526117819084906119a5565b80158061185e575060408051636eb1769f60e11b81523060048201526001600160a01b03848116602483015291519185169163dd62ed3e91604480820192602092909190829003018186803b15801561183057600080fd5b505afa158015611844573d6000803e3d6000fd5b505050506040513d602081101561185a57600080fd5b5051155b6118995760405162461bcd60e51b8152600401808060200182810382526036815260200180611d2d6036913960400191505060405180910390fd5b604080516001600160a01b038416602482015260448082018490528251808303909101815260649091019091526020810180516001600160e01b031663095ea7b360e01b1790526117819084906119a5565b600082820183811015610eec576040805162461bcd60e51b815260206004820152601b60248201527f536166654d6174683a206164646974696f6e206f766572666c6f770000000000604482015290519081900360640190fd5b604080516001600160a01b0380861660248301528416604482015260648082018490528251808303909101815260849091019091526020810180516001600160e01b03166323b872dd60e01b17905261199f9085906119a5565b50505050565b60606119fa826040518060400160405280602081526020017f5361666545524332303a206c6f772d6c6576656c2063616c6c206661696c6564815250856001600160a01b0316611a569092919063ffffffff16565b80519091501561178157808060200190516020811015611a1957600080fd5b50516117815760405162461bcd60e51b815260040180806020018281038252602a815260200180611d03602a913960400191505060405180910390fd5b6060611a658484600085611a6f565b90505b9392505050565b606082471015611ab05760405162461bcd60e51b8152600401808060200182810382526026815260200180611c9c6026913960400191505060405180910390fd5b611ab985611bcb565b611b0a576040805162461bcd60e51b815260206004820152601d60248201527f416464726573733a2063616c6c20746f206e6f6e2d636f6e7472616374000000604482015290519081900360640190fd5b60006060866001600160a01b031685876040518082805190602001908083835b60208310611b495780518252601f199092019160209182019101611b2a565b6001836020036101000a03801982511681845116808217855250505050505090500191505060006040518083038185875af1925050503d8060008114611bab576040519150601f19603f3d011682016040523d82523d6000602084013e611bb0565b606091505b5091509150611bc0828286611bd1565b979650505050505050565b3b151590565b60608315611be0575081611a68565b825115611bf05782518084602001fd5b8160405162461bcd60e51b81526004018080602001828103825283818151815260200191508051906020019080838360005b83811015611c3a578181015183820152602001611c22565b50505050905090810190601f168015611c675780820380516001836020036101000a031916815260200191505b509250505060405180910390fdfe4f776e61626c653a206e6577206f776e657220697320746865207a65726f2061646472657373416464726573733a20696e73756666696369656e742062616c616e636520666f722063616c6c536166654d6174683a206d756c7469706c69636174696f6e206f766572666c6f774f776e61626c653a2063616c6c6572206973206e6f7420746865206f776e65725361666545524332303a204552433230206f7065726174696f6e20646964206e6f7420737563636565645361666545524332303a20617070726f76652066726f6d206e6f6e2d7a65726f20746f206e6f6e2d7a65726f20616c6c6f77616e6365a2646970667358221220a83d92426761f346baa17356afc64914d726d53dffc9dd49d291e554d56ca4e264736f6c634300060c0033",
  "devdoc": {
    "kind": "dev",
    "methods": {
      "owner()": {
        "details": "Returns the address of the current owner."
      },
      "renounceOwnership()": {
        "details": "Leaves the contract without owner. It will not be possible to call `onlyOwner` functions anymore. Can only be called by the current owner. NOTE: Renouncing ownership will leave the contract without an owner, thereby removing any functionality that is only available to the owner."
      },
      "transferOwnership(address)": {
        "details": "Transfers ownership of the contract to a new account (`newOwner`). Can only be called by the current owner."
      }
    },
    "version": 1
  },
  "userdoc": {
    "kind": "user",
    "methods": {},
    "version": 1
  },
  "storageLayout": {
    "storage": [
      {
        "astId": 7,
        "contract": "contracts/NBNGMasterChef.sol:NBNGMasterChef",
        "label": "_owner",
        "offset": 0,
        "slot": "0",
        "type": "t_address"
      },
      {
        "astId": 2245,
        "contract": "contracts/NBNGMasterChef.sol:NBNGMasterChef",
        "label": "NBNG",
        "offset": 0,
        "slot": "1",
        "type": "t_contract(IERC20)1045"
      },
      {
        "astId": 2247,
        "contract": "contracts/NBNGMasterChef.sol:NBNGMasterChef",
        "label": "devaddr",
        "offset": 0,
        "slot": "2",
        "type": "t_address"
      },
      {
        "astId": 2249,
        "contract": "contracts/NBNGMasterChef.sol:NBNGMasterChef",
        "label": "migrator",
        "offset": 0,
        "slot": "3",
        "type": "t_contract(IMigratorChef)2215"
      },
      {
        "astId": 2252,
        "contract": "contracts/NBNGMasterChef.sol:NBNGMasterChef",
        "label": "poolInfo",
        "offset": 0,
        "slot": "4",
        "type": "t_array(t_struct(PoolInfo)2243_storage)dyn_storage"
      },
      {
        "astId": 2258,
        "contract": "contracts/NBNGMasterChef.sol:NBNGMasterChef",
        "label": "userInfo",
        "offset": 0,
        "slot": "5",
        "type": "t_mapping(t_uint256,t_mapping(t_address,t_struct(UserInfo)2228_storage))"
      },
      {
        "astId": 2261,
        "contract": "contracts/NBNGMasterChef.sol:NBNGMasterChef",
        "label": "totalAllocPoint",
        "offset": 0,
        "slot": "6",
        "type": "t_uint256"
      },
      {
        "astId": 2263,
        "contract": "contracts/NBNGMasterChef.sol:NBNGMasterChef",
        "label": "startBlock",
        "offset": 0,
        "slot": "7",
        "type": "t_uint256"
      }
    ],
    "types": {
      "t_address": {
        "encoding": "inplace",
        "label": "address",
        "numberOfBytes": "20"
      },
      "t_array(t_struct(PoolInfo)2243_storage)dyn_storage": {
        "base": "t_struct(PoolInfo)2243_storage",
        "encoding": "dynamic_array",
        "label": "struct NBNGMasterChef.PoolInfo[]",
        "numberOfBytes": "32"
      },
      "t_contract(IERC20)1045": {
        "encoding": "inplace",
        "label": "contract IERC20",
        "numberOfBytes": "20"
      },
      "t_contract(IMigratorChef)2215": {
        "encoding": "inplace",
        "label": "contract IMigratorChef",
        "numberOfBytes": "20"
      },
      "t_mapping(t_address,t_struct(UserInfo)2228_storage)": {
        "encoding": "mapping",
        "key": "t_address",
        "label": "mapping(address => struct NBNGMasterChef.UserInfo)",
        "numberOfBytes": "32",
        "value": "t_struct(UserInfo)2228_storage"
      },
      "t_mapping(t_uint256,t_mapping(t_address,t_struct(UserInfo)2228_storage))": {
        "encoding": "mapping",
        "key": "t_uint256",
        "label": "mapping(uint256 => mapping(address => struct NBNGMasterChef.UserInfo))",
        "numberOfBytes": "32",
        "value": "t_mapping(t_address,t_struct(UserInfo)2228_storage)"
      },
      "t_struct(PoolInfo)2243_storage": {
        "encoding": "inplace",
        "label": "struct NBNGMasterChef.PoolInfo",
        "members": [
          {
            "astId": 2230,
            "contract": "contracts/NBNGMasterChef.sol:NBNGMasterChef",
            "label": "lpToken",
            "offset": 0,
            "slot": "0",
            "type": "t_contract(IERC20)1045"
          },
          {
            "astId": 2232,
            "contract": "contracts/NBNGMasterChef.sol:NBNGMasterChef",
            "label": "allocPoint",
            "offset": 0,
            "slot": "1",
            "type": "t_uint256"
          },
          {
            "astId": 2234,
            "contract": "contracts/NBNGMasterChef.sol:NBNGMasterChef",
            "label": "lastRewardBlock",
            "offset": 0,
            "slot": "2",
            "type": "t_uint256"
          },
          {
            "astId": 2236,
            "contract": "contracts/NBNGMasterChef.sol:NBNGMasterChef",
            "label": "accNBNGPerShare",
            "offset": 0,
            "slot": "3",
            "type": "t_uint256"
          },
          {
            "astId": 2238,
            "contract": "contracts/NBNGMasterChef.sol:NBNGMasterChef",
            "label": "nbngPerBlock",
            "offset": 0,
            "slot": "4",
            "type": "t_uint256"
          },
          {
            "astId": 2240,
            "contract": "contracts/NBNGMasterChef.sol:NBNGMasterChef",
            "label": "upperLimit",
            "offset": 0,
            "slot": "5",
            "type": "t_uint256"
          },
          {
            "astId": 2242,
            "contract": "contracts/NBNGMasterChef.sol:NBNGMasterChef",
            "label": "startPoolBlock",
            "offset": 0,
            "slot": "6",
            "type": "t_uint256"
          }
        ],
        "numberOfBytes": "224"
      },
      "t_struct(UserInfo)2228_storage": {
        "encoding": "inplace",
        "label": "struct NBNGMasterChef.UserInfo",
        "members": [
          {
            "astId": 2225,
            "contract": "contracts/NBNGMasterChef.sol:NBNGMasterChef",
            "label": "amount",
            "offset": 0,
            "slot": "0",
            "type": "t_uint256"
          },
          {
            "astId": 2227,
            "contract": "contracts/NBNGMasterChef.sol:NBNGMasterChef",
            "label": "rewardDebt",
            "offset": 0,
            "slot": "1",
            "type": "t_uint256"
          }
        ],
        "numberOfBytes": "64"
      },
      "t_uint256": {
        "encoding": "inplace",
        "label": "uint256",
        "numberOfBytes": "32"
      }
    }
  }
}